:1000030012003FE4F508AF087E00E50890007893FE
:0F001300FD1200220508E508C3940840E980E4C7
:10006D00C0F9A4B0999282F88090FF0102040810A3
:03007D00204080A0
:080097007F077E71DEFEDFFC35
:01009F00223E
:10003F00D2A5C2A6D2A7C2B6E4F580C2A5C2A6D2E7
:07004F00A7C2B67580FF2275
:10005600746D2FF58274003EF583E493D2A5D2A683
:06006600D2A7C2B6F5802E
:01006C002271
:0B008C00C2A5D2A6D2A7C2B68F802268
:10002200AB07AA06E4FF12008CAF03120056AF051D
:0D00320012008C1200977F0A7E000200561B
:030000000200807B
:0C008000787FE4F6D8FD758108020003CB
:00000001FF
