:0A007500C0F9A4B0999282F88090BF
:1000030012003712005D12007FE4F508F5097475DC
:100013002509F58274003508F583E493F580120011
:100023004E0509E50970020508C39409E508940023
:0400330040DC80D558
:0E004E0000007F2B7E067DCBDDFEDEFCDFFAA0
:01005C002281
:10003700D2A5C2A6D2A7C2B6E4F580C2A5C2A6D2EF
:07004700A7C2B67580FF227D
:0C005D00C2A5D2A6D2A7C2B67580FF22B1
:09007F00D2A5D2A6D2A7C2B62276
:0300000002006992
:0C006900787FE4F6D8FD758109020003E1
:00000001FF
